:100000000C9463000C94B2230C948B230C948B00FF
:100010000C948B000C948B000C948B000C948B0034
:100020000C948B000C948B000C948B000C948B0024
:100030000C948B000C948B000C948B000C948B0014
:100040000C9441230C948B000C94FF230C94D92323
:100050000C948B000C948B000C948B000C948B00F4
:100060000C948B000C948B000000000024002700EF
:100070002A0000000000250028002B0000000000DE
:1000800023002600290004040404040404040202DA
:100090000202020203030303030301020408102007
:1000A0004080010204081020010204081020000012
:1000B0000008000201000003040700000000000027
:1000C00000003124552811241FBECFEFD8E0DEBF39
:1000D000CDBF15E0A0E0B1E0E0E2FFE502C0059091
:1000E0000D92A43CB107D9F727E0A4ECB5E001C01C
:1000F0001D92AF35B207E1F710E0C2E6D0E004C0D0
:100100002197FE010E94CC28C136D107C9F70E9471
:100110004D250C94832F0C9400008CBD9DBD08953B
:10012000FC01818D928D08950895833081F028F42B
:10013000813099F08230A9F008958730A9F0883095
:10014000C9F08430B1F4809180008F7D03C080912C
:1001500080008F7780938000089584B58F7784BD69
:10016000089584B58F7DFBCF8091B0008F77809309
:10017000B00008958091B0008F7DF9CFCF93DF93C9
:10018000282F30E0F901E255FF4F8491F901E6563E
:10019000FF4FD491F901EA57FF4FC491CC23A1F04E
:1001A00081110E949500EC2FF0E0EE0FFF1FE45844
:1001B000FF4FA591B491EC91ED2381E090E009F41B
:1001C00080E0DF91CF91089580E090E0FACF1F9317
:1001D000CF93DF93282F30E0F901E255FF4F849150
:1001E000F901E656FF4FD491F901EA57FF4FC49148
:1001F000CC23A9F0162F81110E949500EC2FF0E07E
:10020000EE0FFF1FEE58FF4FA591B4918FB7F894F2
:10021000EC91111108C0D095DE23DC938FBFDF91E4
:10022000CF911F910895DE2BF8CFCF93DF9390E00D
:10023000FC01E656FF4F24918A579F4FFC018491A1
:100240008823C9F090E0880F991FFC01E859FF4FFF
:10025000A591B491FC01EE58FF4FC591D491611165
:100260000DC09FB7F8948C91209582238C93888140
:10027000282328839FBFDF91CF910895623051F4E6
:100280009FB7F8943C91822F809583238C93E881CB
:100290002E2BEFCF8FB7F894EC912E2B2C938FBF92
:1002A000EACF3FB7F8948091D0059091D105A09105
:1002B000D205B091D30526B5A89B05C02F3F19F0F4
:1002C0000196A11DB11D3FBFBA2FA92F982F8827D6
:1002D000BC01CD01620F711D811D911D42E0660FB1
:1002E000771F881F991F4A95D1F708958F929F9283
:1002F000AF92BF92CF92DF92EF92FF926B017C019F
:100300000E9451014B015C01C114D104E104F104CC
:10031000B9F00E945101681979098A099B09683E60
:1003200073408105910580F321E0C21AD108E108EC
:10033000F10888EE880E83E0981EA11CB11CE4CF62
:10034000FF90EF90DF90CF90BF90AF909F908F90F5
:1003500008952FB7F8946091CC057091CD058091E8
:10036000CE059091CF052FBF08950895AF92BF920B
:10037000CF92DF92EF92FF920F931F93CF93DF9371
:100380006C017B018B01040F151FEB015E01AE18A0
:10039000BF08C017D10759F06991D601ED91FC91C2
:1003A0000190F081E02DC6010995892B79F7C501EF
:1003B000DF91CF911F910F91FF90EF90DF90CF9041
:1003C000BF90AF900895FC01538D448D252F30E0F0
:1003D000842F90E0821B930B541710F0CF96089552
:1003E00001970895FC01918D828D981761F0A28D7F
:1003F000AE0FBF2FB11D5D968C91928D9F5F9F7345
:10040000928F90E008958FEF9FEF0895FC01918DFA
:10041000828D981731F0828DE80FF11D858D90E067
:1004200008958FEF9FEF0895FC01918D228D892F04
:1004300090E0805C9F4F821B91098F7399270895EC
:100440008AEF95E00E94140221E0892B09F420E054
:10045000822F089580E090E0892B29F00E942002ED
:1004600081110C9400000895FC01A48DA80FB92FF0
:10047000B11DA35ABF4F2C91848D90E001968F73CC
:100480009927848FA689B7892C93A089B1898C91EB
:10049000837080648C93938D848D981306C002883A
:1004A000F389E02D80818F7D80830895EF92FF9204
:1004B0000F931F93CF93DF93EC0181E0888F9B8D87
:1004C0008C8D98131AC0E889F989808185FF15C041
:1004D0009FB7F894EE89FF896083E889F989808164
:1004E0008370806480839FBF81E090E0DF91CF9133
:1004F0001F910F91FF90EF900895F62E0B8D10E055
:100500000F5F1F4F0F731127E02E8C8D8E110CC0C3
:100510000FB607FCFACFE889F989808185FFF5CF0E
:10052000CE010E943402F1CFEB8DEC0FFD2FF11DB7
:10053000E35AFF4FF0829FB7F8940B8FEA89FB894B
:1005400080818062CFCFCF93DF93EC01888D8823A9
:10055000B9F0AA89BB89E889F9898C9185FD03C026
:10056000808186FD0DC00FB607FCF7CF8C9185FF0B
:10057000F2CF808185FFEDCFCE010E943402E9CF1A
:10058000DF91CF910895009741F0DC015896ED91ED
:10059000FC9104A0F5A1E02D09940895009741F085
:1005A000DC015896ED91FC91068CF78DE02D0994B5
:1005B0000895009741F0DC015896ED91FC91048C70
:1005C000F58DE02D099486E190E090935407809397
:1005D00053078FEF9FEF0895009741F0DC01589685
:1005E000ED91FC9100A0F1A1E02D099486E190E04D
:1005F00090935407809353078FEF9FEF0895CF9305
:10060000DF93EC01288539854A855B85A8EEB3E048
:100610000E9478280E9476018C859D858230910504
:1006200038F0880F991F880F991F05970197F1F7E8
:10063000DF91CF9108956F927F928F929F92AF92A8
:10064000BF92CF92DF92EF92FF920F931F93CF93BF
:10065000DF93FA018901DC015A966D907C90C12CE0
:10066000D12C76013097C1F02081318142815381B4
:10067000A8EEB3E00E9478286B017C01648175814B
:100680008681978128EE33E040E050E00E948B287D
:10069000C20ED31EE41EF51E0E94A9014B015C018F
:1006A000F30182859385DC01ED91FC910084F18555
:1006B000E02D0995EC0180179107BCF40E94A90177
:1006C000681979098A099B096C157D058E059F05B6
:1006D00060F4F30182859385DC01ED91FC9106883D
:1006E000F789E02D09958111DBCF209741F484E74C
:1006F00090E09093540780935307CFEFDFEFCE0144
:10070000DF91CF911F910F91FF90EF90DF90CF90ED
:10071000BF90AF909F908F907F906F900895CF93F0
:10072000DF93DC015A96CD91DC918A859B85DC01B3
:10073000ED91FC910084F185E02D0995892B51F014
:100740008A859B85DC01ED91FC910284F385E02D87
:100750000995EBCF90E080E0DF91CF910895DC0127
:100760005A96ED91FC9182859385DC01ED91FC9187
:100770000488F589E02D0994EF92FF920F931F935F
:10078000CF93DF9300D000D000D0CDB7DEB7FC010F
:10079000A28DB38D1A968D919C911B97FC0120819F
:1007A0003181F901E684F78412964D915C9113979B
:1007B0002BED31E03A83298316960D911D912D91F1
:1007C0003C9119970B831C832D833E83BE016F5F81
:1007D0007F4FF701099521E030E0892B11F030E0DF
:1007E00020E088279927821B930B26960FB6F89452
:1007F000DEBF0FBECDBFDF91CF911F910F91FF9054
:10080000EF900895FA01DB019C918081981305C057
:1008100011969C918181981749F08FEE9BE29093FD
:100820005407809353078FEF9FEF089582818823A9
:1008300019F083818111F1CF90E080E00895CA0121
:100840000895DC015A96ED91FC9182859385DC0137
:10085000ED91FC910288F389E02D0995BC01990F77
:10086000880B990B08952F923F924F925F926F924F
:100870007F928F929F92AF92BF92CF92DF92EF9230
:10088000FF920F931F93CF93DF93CDB7DEB72A97D5
:100890000FB6F894DEBF0FBECDBF7C013B01DC017B
:1008A0005896ED91FC91028113810F5F1F4FD12C5F
:1008B000C12C912C812C312C212CFE0131962F0141
:1008C000D7015896ED91FC910115110549F4008C62
:1008D000F18DE02DA401B301C70109955C0128C089
:1008E00002A0F3A1E02D9801432D522DBE01675FB8
:1008F0007F4FC70109955C01D7010196F1F5169666
:100900008C9181FD04C0AA24AA94BA2C11C0009134
:100910005307109154070437110521F5C7010E94B0
:10092000FF02C7010E94EC02109354070093530783
:10093000C5012A960FB6F894DEBF0FBECDBFDF917A
:10094000CF911F910F91FF90EF90DF90CF90BF90CC
:10095000AF909F908F907F906F905F904F903F905F
:100960002F900895023FBDE21B07F1F6C7010E94D8
:10097000CE02C7010E94D902D7CF5896ED91FC91C3
:100980000688F789E02DA801B301680D791DC7011C
:1009900009956115710509F582EF9DE29093540761
:1009A00080935307F701868181FFADCF00915307F4
:1009B00010915407023FFDE21F0721F00F36110589
:1009C00009F0A1CFC7010E94CE02C7010E94D9023F
:1009D000109354070093530796CF6F3F760711F398
:1009E000860E971E061B170B09F052C0F701A08D4B
:1009F000B18DC114D10439F0CA94CD28F1F082E050
:100A0000C82ED12C5DCF1296ED91FC911397E60D77
:100A1000F71D808190E0873091050CF45FC09C0148
:100A20002F5031092230310508F45EC0863191051E
:100A300009F460C0479709F463C01296ED91FC91E8
:100A40001397E60DF71D80818F3020F08131C0F0C3
:100A50008731C9F014968D919C911597080F191F35
:100A60009401200F311F16968D919C918217930748
:100A700064F48FEE9BE2909354078093530743CF27
:100A8000058110E0E7CF0185FCCF52E0C52ED12CC7
:100A9000101611060CF014CFD70150964D915D91B0
:100AA0006D917C91539754968D919D910D90BC9131
:100AB000A02D411551056105710529F40097A10587
:100AC000B10509F4FDCE49835A836B837C838D8302
:100AD0009E83AF83B887342C252CF2CECC24C394CC
:100AE000D12C04E010E0D8CFCC24C394D12C05E065
:100AF00010E0D2CFCC24C394D12C06E010E0CCCFB0
:100B0000CC24C394D12C09E010E0C6CFDC015A9666
:100B1000ED91FC9182859385DC01ED91FC91028041
:100B2000F381E02D0995BC0190E080E008959B01E0
:100B300026503109FC0134832583CB010895FC0143
:100B4000208130E0322F22278181820F932F911D47
:100B50000895DC01FB0115968C91159780831496FE
:100B60008C9114978183128213828C9186831296C2
:100B70008C91878388E090E008950F931F93CF9323
:100B8000DF93F801EC01AA8DBB8DCD91DC9111971B
:100B9000CF3FDC07D9F021961196DC93CE931196C6
:100BA0007C91119770837C91718312821382DC0196
:100BB0008C918683678350874187328723878CE0B7
:100BC00090E0DF91CF911F910F91089511961C92A3
:100BD0001E92E5CF683F710530F4FC01718360839C
:100BE00090E080E008956F3F7105B9F386E190E0F1
:100BF00090935407809353078FEF9FEF0895FC0164
:100C000020812EBD9B012150310941F051810DB44D
:100C100007FEFDCF4EB55EBD4193F5CF6150710922
:100C2000860F971F0DB407FEFDCF2EB5FC01208364
:100C30000895E091C605F091C70580819091C505A2
:100C4000892B80830895E091C605F091C7059081B6
:100C50008091C50580958923808308958EBD00000D
:100C60000DB407FEFDCF8EB50895AF92BF92CF921F
:100C7000DF92EF92FF920F931F93CF93DF93CDB745
:100C8000DEB728970FB6F894DEBF0FBECDBF8C013C
:100C90007B016A018091F8058333E1F45801A40EC9
:100CA000B51EA016B10609F46FC00E94230680EF9E
:100CB0000E942E06812F0E942E06802F0E942E0653
:100CC0000F5F1F4FF70181917F010E942E060E9446
:100CD0001906E7CF5B01A40EB51E8433C1F40E9450
:100CE000230619830A838D2D80688B83CC8264E070
:100CF00070E0CE0101960E94FF05AE14BF0409F416
:100D000041C0F70181917F010E942E06F6CF0E941B
:100D100023060F3F110509F028F419820A8384E0A5
:100D20008B830CC017FD17C019820A8333E0169518
:100D300007953A95E1F7007E0C600B8386E0C816B4
:100D4000D104A0F5F701DE011496EA15FB0599F030
:100D500081918D93FACFC80126E0969587952A95C3
:100D6000E1F7807E19830A830115104C10F4846129
:100D7000D7CF8C61D5CFB6016D5F7F4FCE01019685
:100D80000E94FF050E941906C60128960FB6F89426
:100D9000DEBF0FBECDBFDF91CF911F910F91FF90AE
:100DA000EF90DF90CF90BF90AF90089563E070E038
:100DB000CE0101960E94FF05F70181917F010E94FB
:100DC0002E06AE14BF04C1F7DDCFCF93DF931F9281
:100DD000CDB7DEB7898341E050E0BE016F5F7F4F42
:100DE00090E080E00E9435060F90DF91CF9108954A
:100DF00090E02091F805233339F40C96982F990F41
:100E0000990F990F80E008954896F8CFDA01E091A4
:100E1000C905F0E0FE2FEE27E60FF71F90E0982FB0
:100E20008827A901BD018E0F9F1F0C943506CF9313
:100E3000DF9300D0CDB7DEB779836A8322E030E05C
:100E4000AE014F5F5F4F60E170E00E9406070F90B8
:100E50000F90DF91CF910895CF93DF9300D0CDB75E
:100E6000DEB779836A8322E030E0AE014F5F5F4FE7
:100E700064E070E00E9406070F900F90DF91CF9121
:100E80000895CF93DF931F92CDB7DEB72091C905A8
:100E900030E0322F2227260F371F90E0982F882727
:100EA000498341E050E0BE016F5F7F4F820F931F87
:100EB0000E9435060F90DF91CF910895CF93DF9375
:100EC0001F92CDB7DEB76983DC01ED91FC91028002
:100ED000F381E02D41E050E0BE016F5F7F4F099547
:100EE0000F90DF91CF910895CF93DF931F92CDB7ED
:100EF000DEB76983DC01ED91FC910280F381E02D86
:100F000041E050E0BE016F5F7F4F09950F90DF9188
:100F1000CF910895FC019485FB018485981303C04B
:100F200081E0943008F080E00895CF93DF931F9222
:100F3000CDB7DEB76983DC01ED91FC910280F381CE
:100F4000E02D41E050E0BE016F5F7F4F09950F90AB
:100F5000DF91CF910895FC01768765870895DC01C4
:100F6000ED91FC91068CF78DE02D099591E0892794
:100F70000895862F089581E08627089521E0FC01D9
:100F80008485843008F020E0822F08950895FF9230
:100F90000F931F93CF93DF93EB01FC01178A168AFF
:100FA0002A81211109C02B81211106C02C81211118
:100FB00003C02D81222301F141155105E9F08A0179
:100FC000FC01F08C80E591E00E948D00AE014E5F47
:100FD0005F4F24E030E06CE070E08F2D0E94060748
:100FE000B8018F2D0E94170781E090E0DF91CF912B
:100FF0001F910F91FF90089580E0F7CFFC01848549
:1010000095850895FC018489958908952BED31E03B
:10101000FC0131832083FB014089518962897389F6
:10102000FC0142835383648375830895DC01ED9151
:10103000FC91048CF58DE02D0994209129073091C5
:101040002A07821793074CF04091270750912807F1
:10105000420F531F841795073CF084EE9BE2909358
:101060005407809353070895821B930B20913707F1
:1010700030913807820F931FFC0160830895089513
:1010800090E080E0089580E890E00895FC012489D4
:1010900035892F3F320751F061E0FC01868997893D
:1010A000019709F460E0822F0C94E7000895CF9235
:1010B000DF92EF92FF92FC01248935892F3F32079E
:1010C00029F0FC016689822F0E94E7000E945101ED
:1010D0006B017C010E9451016C197D098E099F09E9
:1010E0006230710581059105A8F3FF90EF90DF90C4
:1010F000CF900895EF92FF920F931F93CF93DF93BA
:101100008C017B01C1E0D0E0D801ED91FC91019010
:10111000F081E02DC80109958C179D0734F0CE159C
:10112000DF0571F4F801D18FC08FD80158968D91E9
:101130009C91DF91CF911F910F91FF90EF900895B7
:10114000CC0FDD1FE1CF80E190E0089585E090E0D5
:10115000089589E191E00895CF92DF92EF92FF9296
:101160000F931F93CF93DF93EC010E947A088EAD0B
:101170009FAD019691F07E0180E4E80EF11CF7012D
:1011800080819181019649F06E0122E4C20ED11C4A
:10119000F60180819181019659F4888D998DDF91B6
:1011A000CF911F910F91FF90EF90DF90CF90089516
:1011B000E881F9810084F185E02DCE0109958C014B
:1011C000E881F9810284F385E02DCE010995488DEF
:1011D000598D30E020E082179307F9F2BA01022E10
:1011E00002C0759567950A94E2F760FF16C0200F5C
:1011F000311FF9011081612F6470F60180810E9416
:10120000E700612F6270F70180810E94E700612F83
:1012100061708EAD0E94E700C0CF2F5F3F4FDBCFE4
:10122000AF92BF92CF92DF92EF92FF920F931F93F4
:10123000CF93DF9300D000D0CDB7DEB78C016B0128
:101240007A018091F8058333E9F45B016801C40EEB
:10125000D51EC016D106A9F10E9423068FE00E9478
:101260002E06812F0E942E06802F0E942E060F5FD1
:101270001F4F80E00E942E06F50181935F010E94BE
:101280001906E7CF843369F50E94230619830A8380
:101290008F2D8F778B83EC8264E070E0CE01019616
:1012A0000E94FF05A70170E060E0C6010E94C72C04
:1012B000E114F10421F0B701C6010E94FF050E946C
:1012C0001906C7010F900F900F900F90DF91CF91EB
:1012D0001F910F91FF90EF90DF90CF90BF90AF9054
:1012E00008950E9423060F3F110509F030F419827A
:1012F0000A831B8263E070E0D1CF17FD0BC0198217
:101300000A8333E0169507953A95E1F7007E086069
:101310000B83F0CFC80126E0969587952A95E1F7D3
:10132000807E19830A830115104C18F480618B8329
:10133000E1CF8861FCCF1F93CF93DF931F92CDB78E
:10134000DEB7182F80E591E00E948D00812F0E946A
:10135000F80627E0129FF0011124EC52FA4F228187
:101360003381377041E050E0BE016F5F7F4F820FE5
:10137000931F0E94100989810F90DF91CF911F91D7
:101380000895FC01808D843040F4218D328D232B13
:1013900021F00E949B0990E008958FEF9FEF089540
:1013A000CF93DF93FC012485243028F08FEF9FEF4B
:1013B000DF91CF910895EC010190F081E02D008440
:1013C000F185E02D0995892B89F38C850E949B0975
:1013D00090E0EECFCF93DF931F92CDB7DEB741E021
:1013E00050E0BE016F5F7F4F0E94100989810F900E
:1013F000DF91CF91089590E080E00C94EA09CF93BB
:10140000DF93C4E1D0E00E94FB09882361F061E032
:1014100070E080E090E00E9476012197A1F780E0E3
:10142000DF91CF91089581E0FBCFDF92EF92FF92A1
:101430000F931F93CF93DF9300D0CDB7DEB760E358
:1014400072E080E090E00E947601DFB6F89400E957
:1014500010E034EAE32E30E0F32E8091C8058111CC
:1014600025C0F8018491F7019491E82FF0E0EE0F88
:10147000FF1FE859FF4FA591B4918C91982321F457
:1014800061E08AE00E94E70061E08AE00E941501C5
:101490008CB580618CBD8CB580648CBD61E08DE0C5
:1014A0000E94150161E08BE00E9415018091C80542
:1014B0008F5F8093C805DFBEF8010491E02FF0E054
:1014C000EE0FFF1FEE58FF4F859194919093C70543
:1014D0008093C605F701E490E092C50561E08AE0DB
:1014E0000E9415010E94190680E591E00E948D007E
:1014F00084E38093F80580E80E94E5060E94FF09D6
:10150000882309F441C088E00E94E5060E94FB0997
:101510008830D1F580E10E94E5060E94FB09803108
:1015200099F580E00E94E5060E94FB09182F8111C1
:101530002BC08FE190E00E94EA09833029F580E416
:101540008093C90542E06EE170E0812F0E9441075F
:1015500042E06FE170E0812F0E9441071F5F14306D
:1015600089F740E06EE170E0812F0E94410740E082
:101570006FE170E0812F0E9441071F5F183089F7EB
:1015800081E08093F90564C087E38093F80580E8E3
:101590000E94E5060E94FF098823F9F088E00E9476
:1015A000E5060E94FB098830C1F480E10E94E5064F
:1015B0000E94FB09182F803181F480E00E94E5062B
:1015C0000E94FB09811109C089E390E00E94EA09A9
:1015D000843019F41093C905D3CF83E38093F805C1
:1015E00080E80E94E5060E94FF09882371F180E1EE
:1015F0000E94E5060E94FB09803139F582E10E94D4
:10160000E5060E94FB09823101F580E00E94E506B3
:101610000E94FB09811119C084E08093C90515E57A
:101620001A8341E050E0BE016E5F7F4F8BE190E096
:101630000E943506198341E050E0BE016F5F7F4F85
:101640008AE190E00E9435069BCF1092F80580E079
:101650000F900F90DF91CF911F910F91FF90EF901E
:10166000DF900895CF92DF92EF92FF92CF93DF93B6
:10167000CDB7DEB7C254D1090FB6F894DEBF0FBEA6
:10168000CDBFFC01428153816481758123964CAFAB
:101690005DAF6EAF7FAF239781E023968FAF239727
:1016A0002396CCACDDACEEACFFAC2397CBAADCAA86
:1016B000EDAAFEAA4DA75EA76FA778AB88ABCDA415
:1016C000DEA4EFA4F8A8CFA2D8A6E9A6FAA68EAB0E
:1016D000CBA8DCA8EDA8FEA8C9A2DAA2EBA2FCA2C6
:1016E0002BED31E03C8B2B8B9FEF9D8B9E8B9F8B4B
:1016F000188E3E872D878AA7CFA0D8A4E9A4FAA484
:10170000CF86D88AE98AFA8A8CA389A19AA1ABA14B
:10171000BCA189879A87AB87BC873A8329834B838F
:101720005C836D837E838091F905882309F443C02F
:1017300080E591E00E948D0046E050E067E071E0B6
:1017400089E090E00E94350644E050E0BE016D5F04
:101750007F4F8FE090E00E94350644E050E0BE01EC
:10176000615F7F4F81E090E00E94350644E050E0E9
:10177000BE016B5E7F4F85E090E00E94350681E000
:101780008C8789859A85AB85BC858093CF0690939D
:10179000D006A093D106B093D206CE5BDF4F0FB632
:1017A000F894DEBF0FBECDBFDF91CF91FF90EF90D9
:1017B000DF90CF9008950E94150A882371F3B8CF67
:1017C0002091C90530E0322F2227620F731F90E06D
:1017D000982F8827860F971F0C94EA09CF93C82F5C
:1017E000462F61E070E00E94410761E070E08C2FBD
:1017F0000E94E00B8111F9CFCF910895CF93C82FAC
:1018000080E591E00E948D0068E070E08C2FCF9120
:101810000C94EE0BCF93C82F80E591E00E948D00D1
:1018200060E170E08C2FCF910C94EE0BCF93DF939F
:10183000EC01888D843020F40E940A0C84E0888FAB
:10184000DF91CF91089563E070E00C94E00BCF93AB
:10185000C82F80E591E00E948D008C2FCF910C94D1
:10186000230CEF92FF920F931F93CF937C0100EF15
:1018700015E0C0E0F801219131918F01F7018481D9
:1018800095812817390729F0CF5FC43099F780E098
:1018900006C08C2F0E94270C8431B1F781E0CF91D4
:1018A0001F910F91FF90EF900895CF93DF93EC017C
:1018B0008C858430D0F40E94270C843189F08823F1
:1018C00079F0883169F021E08C3159F4E881F981AF
:1018D0000084F185E02DCE01099521E0892B09F4E2
:1018E00020E0822FDF91CF91089580E0FBCFCF924F
:1018F000DF92EF92FF92CF93DF93EC018C858430DF
:1019000068F40E94FE0B0E94A9016B017C018C858A
:101910000E94270C811109C084E08C87DF91CF9150
:10192000FF90EF90DF90CF90089561E070E080E04D
:1019300090E00E9476010E94A901AB01BC014C1904
:101940005D096E097F098D859E85B0E0A0E048178E
:1019500059076A077B07D8F28C850E940A0CDCCFF6
:10196000CF93FC01C08D80E591E00E948D0060E284
:1019700070E08C2F0E94EE0B62E070E08C2F0E94D2
:10198000E00B84FD16C062E070E08C2F0E94E00B3B
:1019900083FF0AC048E162E070E08C2F0E9441079B
:1019A00080E090E0CF91089580E591E00E948D0065
:1019B000E3CF40E162E070E08C2F0E94410781E0BC
:1019C000F0CFDA01E091C905F0E0FE2FEE27E60F37
:1019D000F71F90E0982F8827A901BD018E0F9F1F48
:1019E0000C9410098F929F92AF92BF92CF92DF9288
:1019F000EF92FF921F93CF93DF93CDB7DEB72C9773
:101A00000FB6F894DEBF0FBECDBF2091F80514E0ED
:101A1000222329F16B017C0180E591E00E948D0079
:101A20005E0127E0A20EB11C450110E0812F0E944B
:101A3000230CF40181934F01882349F11F5F143077
:101A4000A9F710E0F50181915F018D31D9F088315E
:101A5000C9F08A518230B0F01F5F143099F7812F9E
:101A60002C960FB6F894DEBF0FBECDBFDF91CF919D
:101A70001F91FF90EF90DF90CF90BF90AF909F901D
:101A80008F90089560E170E0812F0E94EE0BA12EEF
:101A9000B12CF501EE0FFF1FE051FA4F11821082B9
:101AA00083EE93E00197F1F742E870E060E0812F68
:101AB0000E9441074FEF62E070E0812F0E944107D2
:101AC000B601C114D10491F48091050190910601F1
:101AD00001968115F0EC9F0708F45CC09093060115
:101AE000809305016091050170910601812F0E948C
:101AF0002C0786E0E3E1F1E0DE01119601900D9202
:101B00008A95E1F7F70183818F778C8384818D83B8
:101B100085818E83A7014E5F5F4F24E030E06CE04B
:101B200070E0812F0E940607B601812F0E941707DF
:101B300026E030E0AE014F5F5F4F66E070E0812F3E
:101B40000E94060761E070E0812F0E94EE0B27E003
:101B50002A9DC0012B9D900D11249C012C523A4FBF
:101B60007901F9011182108222E030E0AE01455F77
:101B70005F4F68E270E0812F0E94E10C8B859C85AD
:101B8000982789279827F7019383828316821582E5
:101B9000148265CF80E090ECA1CFCF92DF92EF92DC
:101BA000FF920F931F93CF93DF9300D000D000D00C
:101BB000CDB7DEB78C016B017A01FC01808D8430DA
:101BC00010F40E940A0C8BED91E09A838983F60150
:101BD00082819381A481B5818B839C83AD83BE83F5
:101BE000B701CE0101960E94F20CF801808F84307B
:101BF000A0F4F586E486128E118E81E026960FB64B
:101C0000F894DEBF0FBECDBFDF91CF911F910F9132
:101C1000FF90EF90DF90CF90089580E0EFCFAF92EC
:101C2000BF92CF92DF92EF92FF920F931F93CF93C9
:101C3000DF9300D000D000D0CDB7DEB7082F6B0106
:101C400080E591E00E948D009E012F5F3F4F79015A
:101C5000590110E0812F0E94230CF50181935F014F
:101C6000882341F11F5F1430A9F710E0F70181913B
:101C70007F018D31D1F08831C1F08A518230A8F0D6
:101C80001F5F143099F7812F26960FB6F894DEBFA8
:101C90000FBECDBFDF91CF911F910F91FF90EF90BD
:101CA000DF90CF90BF90AF90089560E170E0812FFA
:101CB0000E94EE0BE12EF12CF701EE0FFF1FE05119
:101CC000FA4F1182108283EE93E00197F1F7402FD3
:101CD00070E060E0812F0E9441074FEF62E070E00A
:101CE000812F0E944107B601CD2889F4809105011A
:101CF0009091060101968115F0EC9F0798F1909361
:101D00000601809305016091050170910601812F04
:101D10000E942C0761E070E0812F0E94EE0B27E00B
:101D20002E9DC0012F9D900D11249C012C523A4FE5
:101D30007901F9011182108222E030E0AE014B5F9F
:101D40005F4F68E270E0812F0E94E10C8D819E81DF
:101D5000982789279827F701938382831682158213
:101D6000148291CF80E090ECCACFCF92DF92EF92B5
:101D7000FF921F93CF93DF93EC017B016A018C8567
:101D8000843048F40E94270C882319F08C850E9427
:101D9000FE0B84E08C87F70182819381A481B58159
:101DA0000097A105B10551F490E080E0DF91CF915B
:101DB0001F91FF90EF90DF90CF9008958F3F9F4F3E
:101DC000AF4FBF4F89F38091F805811103C084E0C4
:101DD0008C87EACF70E060E081E20E940F0E182F3E
:101DE0008C87843008F780E591E00E948D00A70180
:101DF0004E5F5F4F24E030E06CE070E0812F0E9486
:101E00000607B601812F0E94170764E070E0812F5A
:101E10000E94EE0B0E94A9016B017C018C850E943F
:101E2000270C873109F18C31F9F0882309F4BCCFF4
:101E30000E94A901AB01BC014C195D096E097F0923
:101E40008D859E85B0E0A0E084179507A607B707AB
:101E500038F061E070E080E090E00E947601DECF33
:101E60008C850E940A0CB3CF81E090E09FCF0F9346
:101E70001F93CF93DF93EC018B01888D843010F496
:101E80000E940A0C8091F805811107C094E0988F98
:101E9000DF91CF911F910F910895B80182E00E94C8
:101EA0000F0E888F843030F41D870C871A8E198EA0
:101EB00081E0EECF80E0ECCF0F931F93CF93209182
:101EC000F805222349F18C01FC016481758181E2CE
:101ED0000E940F0EC82F8430F8F480E591E00E9434
:101EE0008D008C2F0E94230C833131F08C2FCF91E9
:101EF0001F910F910C94FE0B62E070E08C2F0E94FA
:101F0000EE0BF80184819581EC2FF0E0EE0FFF1FBE
:101F1000E051FA4F91838083CF911F910F910895E3
:101F20007F928F929F92AF92BF92CF92DF92EF9269
:101F3000FF920F931F93CF93DF9300D0CDB7DEB7FF
:101F4000782E8B014A01590122E030E0AE014F5F4B
:101F50005F4F64E270E00E94E10CE980FA80FE24A9
:101F6000EF24FE24E00EF11E970137704091F80532
:101F7000072D10E0433309F042C0085F1F4F102FB8
:101F80000027110F110F110FC901800F911F473347
:101F9000C9F1A9014A0D5B1D4130584098F160E03C
:101FA00078E06B01C21AD30AA601B4010E9435067B
:101FB000A5014C195D09B4016C0D7D1DC8010E947D
:101FC0003506EA0CFB1CF982EA8222E030E0AE0121
:101FD0004F5F5F4F64E270E0872D0E9406070F900D
:101FE0000F90DF91CF911F910F91FF90EF90DF90B5
:101FF000CF90BF90AF909F908F907F900895005F9B
:102000001F4FBDCFA501B401DACFEF92FF921F930E
:10201000CF93DF9300D0CDB7DEB7182F22E030E0AA
:10202000AE014F5F5F4F60E270E00E94E10CE9801B
:10203000FA80FE24EF24FE2422E030E0AE014F5F60
:102040005F4F60E270E0812F0E94E10C89819A81EC
:10205000982789279827E816F90689F487E0189FBA
:10206000F0011124EC52FA4FF582E482C7010F907F
:102070000F90DF91CF911F91FF90EF9008957C0119
:10208000DBCF1F93CF93DF93182F80E591E00E9461
:102090008D00812F0E940510EC01812F0E94230CDE
:1020A000873121F08C3111F0D0E0C0E0CE01DF911A
:1020B000CF911F910895CF93DF93EC018C858430ED
:1020C00060F40E94270C873111F08C3131F48C853B
:1020D0000E9441108115984088F3DF91CF910895B7
:1020E000FC018485843010F40C94411090E080E071
:1020F0000895CF92DF92EF92FF921F93CF93DF93D9
:10210000182F7B01EA014130584010F0C0E0D8E0C0
:1021100080E591E00E948D00812F0E9405106C01E6
:10212000812F0E94230C873111F08C3121F5CC16C0
:10213000DD0670F380E591E00E948D009E01A7010D
:1021400070E060E0812F0E94900F60E270E0812FCC
:102150000E94EE0B62E070E0812F0E94E00B84FD94
:102160000DC0812F0E94230C8823B9F080E591E0F7
:102170000E948D00EFCFD0E0C0E0DCCF40E162E014
:1021800070E0812F0E944107CE01DF91CF911F9116
:10219000FF90EF90DF90CF900895D0E0C0E0F4CFB3
:1021A0000F931F93CF93DF938C01EA01FC01848589
:1021B000843048F40E947910892B39F481E090E052
:1021C000F80193838283D0E0C0E0CE01DF91CF910C
:1021D0001F910F9108959F92AF92BF92CF92DF927D
:1021E000EF92FF920F931F93CF93DF938C015B01CC
:1021F000942EE52EFC01C688D788F08C80E591E00E
:102200000E948D008F2D0E940510C92DDE2D8C1788
:102210009D0708F4EC019E01A501B6018F2D0E94D7
:10222000900FF801868997898C0F9D1F978B868B5D
:10223000CE01DF91CF911F910F91FF90EF90DF9032
:10224000CF90BF90AF909F900895FF920F931F93F0
:10225000CF93DF9300D0CDB7DEB7F82E22E030E089
:10226000AE014F5F5F4F66E270E00E94E10C0981B2
:102270001A8110270127102722E030E0AE014F5FBE
:102280005F4F66E270E08F2D0E94E10C89819A8198
:102290009827892798270817190749F4C8010F902C
:1022A0000F90DF91CF911F910F91FF9008958C01B6
:1022B000E3CF1F93CF93DF93182F87E0189FE001A0
:1022C0001124CC52DA4F88819981009761F480E51E
:1022D00091E00E948D00812F0E9425112E81821B8A
:1022E000910999838883DF91CF911F910895AF92CF
:1022F000BF92CF92DF92EF92FF920F931F93CF93F3
:10230000DF93EC017B018091F805811120C01B82D5
:102310001A8288EE93E0A0E0B0E08C839D83AE83C8
:10232000BF8382E291E09983888384E08C8788EE82
:1023300093E09E878D87CE01DF91CF911F910F9102
:10234000FF90EF90DF90CF90BF90AF90089580EF17
:10235000C82E85E0D82E10E094E0B92EA12CD6012D
:102360002D913D916D01F7018481958128173907E1
:1023700091F4812F0E94270C082F873111F08C31A6
:1023800039F5812F0E945911892B59F50C3119F417
:10239000812F0E94FE0B1F5F143009F7A11008C0A7
:1023A000D701ED91FC910084F185E02DC7010995DD
:1023B0001B821A8288EE93E0A0E0B0E08C839D83BC
:1023C000AE83BF8382E291E099838883BC86AFCFDE
:1023D000843149F08111DFCFF601329711821082EA
:1023E000DACFB12ED8CFAA24A394D5CF8F929F92C3
:1023F000AF92BF92CF92DF92EF92FF921F93CF9353
:10240000DF93CDB7DEB72F970FB6F894DEBF0FBEC0
:10241000CDBF5C014B017A018091F8058823A1F1C1
:10242000B501CE0101960E94771180EFC82E85E09C
:10243000D82E10E0F601219131916F01F5018481D0
:1024400095812817390751F4812F0E94270C873175
:1024500029F4A701B401812F0E9479101F5F143065
:1024600049F7C7012F960FB6F894DEBF0FBECDBF58
:10247000DF91CF911F91FF90EF90DF90CF90BF90B1
:10248000AF909F908F900895F12CE12CEACFFC0142
:102490008485843010F40C94591190E080E0089504
:1024A0004F925F927F928F929F92AF92BF92CF9204
:1024B000DF92EF92FF920F931F93CF93DF9300D0A1
:1024C000CDB7DEB7782E6B014A01A82EB12C27E0DC
:1024D000829FC0011124FC01EC52FA4F7F01008160
:1024E000118180E591E00E948D000815190554F4D2
:1024F000872D0E942511F70126818C01021B1109ED
:10250000118300830115110519F5872D0E94230CF5
:10251000843159F0882349F001E010E08C3111F446
:1025200010E000E0119501951109C8010F900F907E
:10253000DF91CF911F910F91FF90EF90DF90CF909F
:10254000BF90AF909F908F907F905F904F90089535
:10255000801691060CF4840187E08A9DF0018B9D22
:10256000F00D1124EC52FA4FE280F380C114D10433
:1025700051F12701F7E05F22872D0E94F806840DB4
:10258000951D2091F805273309F453C09801240DB7
:10259000351D2130384008F44CC020E038E04901B6
:1025A00084189508A401B6010E9410092601480C60
:1025B000591C6801C818D908872D0E94F806A60181
:1025C000B2010E941009E00EF11E87E08A9DF00121
:1025D0008B9DF00D1124EC52FA4FF382E2822081A0
:1025E0003181201B310B318320838681800F912F15
:1025F000911D8A3F910510F4232BF1F487E08A9D09
:10260000F0018B9DF00D1124EC52FA4F1682F982E5
:10261000EA8222E030E0AE014F5F5F4F68E270E097
:10262000872D0E94060760E470E0872D0E94EE0B64
:102630007CCFA801B601C5CF868377CFCF93DF9338
:10264000FC01218D328D2115310529F48FEF9FEF8B
:10265000DF91CF910895EC01808D4217530708F068
:10266000A9010E9450121816190684F7298D3A8D77
:10267000281B390B3A8F298FEBCF0F931F93CF93E2
:10268000DF931F92CDB7DEB7FC01218D328D232B56
:1026900041F48FEF9FEF0F90DF91CF911F910F913A
:1026A00008958C0141E050E0BE016F5F7F4FFC0157
:1026B000808D0E945012181619065CF7F801818D62
:1026C000928D0197928F818F898190E0E4CFCF9393
:1026D000DF931F92CDB7DEB741E050E0BE016F5FE0
:1026E0007F4FFC0184850E9450121816190634F49D
:1026F000898190E00F90DF91CF9108958FEF9FEF48
:10270000F9CFFC018485843010F40C94501290E0D1
:1027100080E008950F931F93CF93DF9300D0CDB740
:10272000DEB7FC0124852430E0F48C0180E591E0E3
:102730000E948D0022E030E0AE014F5F5F4F60E10C
:1027400070E0F80184850E94E10C89819A819827C4
:10275000892798270F900F90DF91CF911F910F91AC
:10276000089590E080E0F6CF0F931F93CF93DF930F
:1027700000D0CDB7DEB7FC0124852430E0F48C0115
:1027800080E591E00E948D0022E030E0AE014F5FD5
:102790005F4F64E070E0F80184850E94E10C89815C
:1027A0009A819827892798270F900F90DF91CF91D2
:1027B0001F910F91089590E080E0F6CF4F925F92C5
:1027C0006F927F928F929F92AF92BF92CF92DF9241
:1027D000EF92FF920F931F93CF93DF93CDB7DEB7A6
:1027E0002E970FB6F894DEBF0FBECDBF2B013C0174
:1027F000DC01CB0180959095A095B0958827B7FD19
:1028000083959927AA27BB279093160780931507CE
:102810001092DF061092E0061092E1061092E20696
:1028200077FE08C07094609450944094411C511CF1
:10283000611C711C409201075092020760920307CD
:10284000709204071092FD061092FE061092FF0689
:10285000109200071092DB061092DC061092DD0643
:102860001092DE068090F3069090F406A090F50694
:10287000B090F6066091E7067091E806072E000C0E
:10288000880B990B0E94832969837A838B839C83AD
:102890006091F1067091F206072E000C880B990BDF
:1028A0000E9483296B017C018091F7069091F806C4
:1028B000019709F094C1A501940169817A818B8106
:1028C0009C810E940F2A20E030E040E752E40E9401
:1028D000D92869837A838B839C832091F906309170
:1028E000FA063E872D879B01AC010E940F2A4B01FF
:1028F0005C016D857E85660F771F072E000C880BA7
:10290000990B0E9483299B01AC01C501B4010E946F
:10291000D928A70196010E940F2A0E944B294B013A
:102920005C018092050790920607A0920707B0927B
:1029300008070091FB061091FC06C801012E000C4F
:10294000AA0BBB0B8D839E83AF83B8878D859E8535
:10295000092E000CAA0BBB0B89879A87AB87BC8713
:102960009C01AD01C501B4010E94BC282D813E81AE
:102970004F8158850E9459282093090730930A07F0
:1029800040930B0750930C07820E931EA41EB51E96
:10299000481459046A047B0434F5A30192016D8143
:1029A0007E818F8198850E94BC282D853E85200FD1
:1029B000311F032E000C440B550B0E945928209305
:1029C0000507309306074093070750930807421AFC
:1029D000530A640A750A4092090750920A076092E6
:1029E0000B0770920C0769857A858B859C850E9400
:1029F00083299B01AC0160E070E080E090E40E94DC
:102A0000D928A70196010E94D9280E94822A20E095
:102A10003AE045E259E40E940F2A0E944B29609354
:102A20000D0770930E0780930F079093100729816D
:102A30003A814B815C8160E074E284E799E40E9412
:102A4000D928A70196010E94D9280E944B2960939A
:102A500011077093120780931307909314078091C6
:102A6000010790910207A0910307B091040718167F
:102A700019061A061B060CF0BDC18090E306909063
:102A8000E406A090E506B090E60681149104A10446
:102A9000B104E1F0C090DF06D090E006E090E106DE
:102AA000F090E206C114D104E104F10421F40E9483
:102AB00051016B017C010E9451016C197D098E0945
:102AC0009F09681579058A059B05A8F3609115078C
:102AD0008091E9060E94E70061E08091EB060E9488
:102AE000E7000E94510169837A838B839C83C090A5
:102AF0000D07D0900E07E0900F07F090100780911F
:102B0000010790910207A0910307B09104071816DE
:102B100019061A061B060CF0FAC09C01AD012150E3
:102B2000310941095109209301073093020740936D
:102B30000307509304078091FD069091FE06A09133
:102B4000FF06B09100070196A11DB11D8093FD06FF
:102B50009093FE06A093FF06B09300076091F706DE
:102B60007091F8066130710509F0D1C02115310569
:102B70004105510509F4CBC04090090750900A0760
:102B800060900B0770900C0742165306640675069A
:102B90000CF078C040910507509106076091070737
:102BA00070910807481759076A077B070CF4AFC0F4
:102BB00084179507A607B7070CF400C18091110789
:102BC00090911207A0911307B091140780930D07FD
:102BD00090930E07A0930F07B093100798C0109220
:102BE0000507109206071092070710920807109227
:102BF000090710920A0710920B0710920C072981FF
:102C00003A814B815C8160EC71EE84E69CE40E9429
:102C1000D928A70196010E94D928A50194010E94F4
:102C2000D9280E944B296B017C01C0921107D092D8
:102C30001207E0921307F0921407A30192010E9479
:102C4000BC2897FD09C0C0920D07D0920E07E092F4
:102C50000F07F092100703CFC301B2010E9483292E
:102C60009B01AC0160E070E0CB010E94D9280E947A
:102C70004B2960930D0770930E0780930F07909375
:102C80001007EDCE4090DB065090DC066090DD062C
:102C90007090DE06ACEFBFEF0E9486284B015C010E
:102CA000AFEF8A1A9A0AAA0ABA0AC701B601660FD2
:102CB000771F881F991F640D751D861D971DA5011F
:102CC00094010E945928D701C601821B930BA40BC3
:102CD000B50B80930D0790930E07A0930F07B09349
:102CE0001007BC01CD01660F771F881F991F640D67
:102CF000751D861D971DA50194010E94592860939A
:102D0000DB067093DC068093DD069093DE060E945E
:102D100051012B013C010E945101461657066806DD
:102D20007906C9F360E08091EB060E94E7000E94FB
:102D300051016093DF067093E0068093E106909363
:102D4000E206A981BA816A1B7B0BCB01B0E0A0E04F
:102D50008C159D05AE05BF0508F047C0C81AD90AF5
:102D6000EA0AFB0AC092E306D092E406E092E50686
:102D7000F092E6068091E3069091E406A091E506C4
:102D8000B091E606892B8A2B8B2B09F068CE2E9604
:102D90000FB6F894DEBF0FBECDBFDF91CF911F916C
:102DA0000F91FF90EF90DF90CF90BF90AF909F90EA
:102DB0008F907F906F905F904F9008954090DB06CA
:102DC0005090DC066090DD067090DE0642E0880FD1
:102DD000991FAA1FBB1F4A95D1F74C015D012FEF28
:102DE000821A920AA20AB20A60CFC12CD12C7601B3
:102DF000C394B8CF1092DF061092E0061092E1065D
:102E00001092E2061092E3061092E4061092E50694
:102E10001092E606AFCF0F931F93CF93DF938C01F1
:102E20008CE190E00E94D72AEC018FEF9FEF9B830B
:102E30008A831D821C821F821E82188619861A862A
:102E40001B8680E291EAA7E0B0E08C879D87AE8781
:102E5000BF87188A198A1A8A1B8A8C8B9D8BAE8B26
:102E6000BF8B8FEF90E0998388838BE791E0998FF8
:102E7000888F8CE090E00E94D72AFC019B8F8A8F7C
:102E800013861286D80112964D915D916D917C91B9
:102E90001597468357836087718713821282118248
:102EA0001082CE01DF91CF911F910F910895CF93A2
:102EB000DF93EC018A8D9B8D0E94732BCE01DF91F5
:102EC000CF910C94732BCF93DF93EC0187EC91E0BF
:102ED000998388838C899D89009711F00E94732BB8
:102EE0008E899F89009711F00E94732B888D998D90
:102EF000009711F00E94732B8A8D9B8D009711F023
:102F00000E94732B8A819B81009721F0DF91CF91E2
:102F10000C94C302DF91CF910895CF93DF93EC011E
:102F20000E946317CE01DF91CF910C94732B0E9406
:102F3000B92CFB0101900020E9F73197AF01461B46
:102F4000570BDC01ED91FC910280F381E02D099497
:102F50008F929F92AF92BF92EF92FF920F931F9327
:102F6000CF93DF93CDB7DEB7A1970FB6F894DEBF4E
:102F70000FBECDBF7C01FA01CB0119A2223008F4AB
:102F80002AE08E010F5D1F4F822E912CB12CA12CB7
:102F9000BF01A50194010E948B28F901CA016A3082
:102FA0000CF5605DD8016E938D01232B242B252B0E
:102FB00079F790E080E0109721F0BD01C7010E94F1
:102FC0009917A1960FB6F894DEBF0FBECDBFDF9163
:102FD000CF911F910F91FF90EF90BF90AF909F9076
:102FE0008F900895695CDECFCF92DF92EF92FF92CF
:102FF000CF93DF936B017C016DE28AEF95E00E9435
:103000005602EC0144275527BA014C195D096E0997
:103010007F092AE08AEF95E00E94A8178C0F9D1F78
:10302000DF91CF91FF90EF90DF90CF9008958F9236
:103030009F92AF92BF92CF92DF92EF92FF920F9347
:103040001F93CF93DF937C01EB016C0182E0C80EEC
:10305000D11C4701E5E08E0E911C10E000E0F60166
:1030600041916F0150E070E060E02AE0CE010E94E3
:10307000A8175C01E881F9810190F081E02D6EE2F2
:10308000CE0109958A0D9B1D080F191FC814D9047C
:1030900031F7F701458150E070E060E02AE0CE01B1
:1030A0000E94A817800F911FDF91CF911F910F9160
:1030B000FF90EF90DF90CF90BF90AF909F908F9058
:1030C00008950F931F93CF93DF93EC010E949917FC
:1030D0008C016DEE71E0CE010E949917800F911F57
:1030E000DF91CF911F910F91089583E00E94BE0060
:1030F000892B59F460E081E090E00E941D0860EFA8
:1031000071E08AEF95E00E94611883E00E94BE00A2
:10311000892B59F061E081E090E00E941D086FEF7B
:1031200071E08AEF95E00C946118089582E00E94A6
:10313000BE00892B59F460E090E080E00E941D08F9
:103140006DE072E08AEF95E00E94611882E00E94D3
:10315000BE00892B59F061E090E080E00E941D08DC
:103160006BE172E08AEF95E00C9461180895BF92CC
:10317000CF92DF92EF92FF920F931F93CF93DF9343
:10318000CDB7DEB7EC84FD84CE84DF84B8880A89AD
:103190001B89D70114968D919C91892B59F0AE0112
:1031A000485E5F4F6E897F898091590790915A07D9
:1031B0000E94CE2C8C899D89892B31F0C7010E94F9
:1031C000FF02C7010E94EC02F601828193818058C0
:1031D0009F4F93838283D7015896ED91FC9104848D
:1031E000F585E02DB801C6010995F801E80FF91F32
:1031F000B0820196DF91CF911F910F91FF90EF90D8
:10320000DF90CF90BF9008952F923F924F925F92A0
:103210006F927F928F929F92AF92BF92CF92DF92E6
:10322000EF92FF920F931F93CF93DF93CDB7DEB74B
:10323000CC51D2400FB6F894DEBF0FBECDBFFC011B
:10324000A281B381109701F586E190E09093540735
:1032500080935307C45EDD4F0FB6F894DEBF0FBEF8
:10326000CDBFDF91CF911F910F91FF90EF90DF9035
:10327000CF90BF90AF909F908F907F906F905F9016
:103280004F903F902F9008955C017E01FBEFEF1A65
:10329000FEEFFF0A5896ED91FC9159970488F58945
:1032A000E02DB701CD010995181619069CF6D50138
:1032B00012964D905C90C15FDD4F99838883CF500B
:1032C000D2404114510409F4BFCFD2015896ED9178
:1032D000FC91C280D380A4E0B1E0AC0FBD1FAC0D67
:1032E000BD1D8C91282F30E0C95EDD4F39832883C6
:1032F000C751D240A7014C0D5D1DCD5EDD4F5983F6
:103300004883C351D240DA019C90092D10E0A6E019
:10331000B1E0AC0FBD1FAC0DBD1D2C90312C322C7B
:103320002224A7E0B1E0AC0FBD1FAC0DBD1D8C91F8
:10333000280E311C3E01B7EF6B1ABDEF7B0AD3019B
:1033400011963C932E9313961C930E93129706841A
:10335000F785E02DBE01615F7D4FC7010995F3013F
:1033600095838483EFEFE90DE73108F06BC5F0E05A
:10337000E454F64E0C94CC28D319D319FF1AFF1A33
:10338000901BE81B6D1D221F221F221F221F221FC0
:10339000221F221F1D1CCC1C3C1D221F221F221F6E
:1033A000221F701DBC1D0230110509F04CC0D50153
:1033B0001A964D915C911B9718962D913C911997F7
:1033C0005696AD90BC9084E392E0E8E0F1E0EC0F1B
:1033D000FD1FEC0DFD1DE080F12CFE2CEE24E9E03C
:1033E000F1E0EC0FFD1FEC0DFD1D6081E60EF11C00
:1033F000B70161507109603D774078F127E02F9364
:1034000020ED2F939F938F93FF92EF9288E692E0A7
:103410009F938F931F9281E08F9321E030E02C0FD8
:103420003D1F3F932F931F9283E08F937F926F9264
:103430005F924F920E94B7188C010FB6F894DEBFCE
:103440000FBECDBF6EC0F501468157812481358105
:10345000A488B5888AE292E0B8CF6101C41AD50A7F
:10346000D7FC08C047018C0C9D1C28153905E4F4D5
:103470002E0C3F1C9F938F933F922F9280E992E0F6
:103480009F938F931F921F9261E070E06C0F7D1FDE
:103490007F936F931F9282E08F937F926F925F92E0
:1034A0004F920E94B718C8CFD2015896ED91FC9167
:1034B0000484F585E02DBE016F5F7F4FC301099540
:1034C0008C010F5F1F4FE1E0F0E0EC0FFD1F8E0F4E
:1034D0009F1F21E0A70147705527452B09F420E0E5
:1034E000F3E0F594E794FA95E1F7E20EDC01EC9253
:1034F000F501EC0DFD1D30E020E090E080E0AF0133
:103500004A195B09481559050CF460C0892B49F02C
:10351000E1E0F0E0EC0FFD1FE00FF11F20830F5FF3
:103520001F4FC95EDD4F28813981C751D240232BFF
:1035300009F490CED2015896ED91FC910088F18962
:10354000E02DB801CE01019609958C01D201589663
:10355000ED91FC910288F389E02DA801BE016F5F17
:103560007F4FC20109957B016F3F7F4FD9F4F20174
:10357000868181FF17C0C0905307D0905407C201C5
:10358000F2EFCF16FDE2DF0609F06CC40E94CE0216
:10359000C2010E94FF02C2010E94D902D0925407C8
:1035A000C0925307D20116968C9181FF04C0BFEFE1
:1035B000EB16FB0659F21E141F040CF04BCE0E1531
:1035C0001F0509F447CE8FEE9BE240CE419150E0BB
:1035D000082E02C0440F551F0A94E2F7242B352B06
:1035E0008730910551F4A1E0B0E0AC0FBD1FA00FF2
:1035F000B11F2C930F5F1F4F7ECF019680CF0430F9
:103600001105B1F5F5014685578524853585808CF2
:10361000918C84E492E0E8E0F1E0EC0FFD1FEC0D0A
:10362000FD1D008110E0102F0027E9E0F1E0EC0F14
:10363000FD1FEC0DFD1D6081060F111DB8016150CD
:103640007109FE0131966F016D37710500F11F920E
:103650002DE72F939F938F931F930F9388E692E00C
:103660009F938F931F9281E08F93FF93EF93DBCE15
:10367000D50152964D915C91539750962D913C9166
:1036800051975A968D909C9089E592E0C4CF710134
:10369000E41AF50A5701F7FC07C0E00EF11E2E15DB
:1036A0003F057CF4200E311E9F938F933F922F9203
:1036B00080E992E09F938F931F921F92DF92CF92A7
:1036C000E9CED2015896ED91FC910484F585E02D68
:1036D000B601C3010995F601E80FF91F000F008339
:1036E0009501220F331F820E931E0196F601E80FFB
:1036F000F91F8F010C191D09AE14BF040CF011CF76
:10370000D40111968C91B2E08B0E911C8083D40170
:1037100012978C9181832FEFA21AB20A3296E9CFC9
:10372000D50116968D919C911797A101481B590BB5
:10373000CE01019657FD06C014962D913C9142177B
:1037400053074CF03F922F9222EB32E03F932F939E
:103750001F921F928EC1E8E0F1E0EC0FFD1FEC0D0F
:10376000FD1D208130E0322F2227E9E0F1E0EC0F4F
:10377000FD1FEC0DFD1D6081260F311D2115FFEF92
:103780003F0719F021153105B1F4D5015496ED919B
:10379000FC91E40FF51F41E0232B09F440E0408346
:1037A000C15FDD4F08811981CF50D240A801B70118
:1037B0000E94BE2CB6CE3F922F923F932F932BEDBB
:1037C00032E03F932F931F921F929F938F9361C07C
:1037D000D50152968D919C9153979101281B390BDD
:1037E000CE01019637FD07C050964D915C915197DF
:1037F000241735072CF03F922F9229E133E0A6CF12
:10380000220F331F5A96ED91FC91E20FF31FA8E0AF
:10381000B1E0AC0FBD1FAC0DBD1D2C9130E0322FBF
:103820002227A9E0B1E0AC0FBD1FAC0DBD1D4C912E
:10383000240F311D31832083B3CFE8E0F1E0EC0F9A
:10384000FD1FEC0DFD1D808190E0982F8827E9E099
:10385000F1E0EC0FFD1FEC0DFD1D2081820F911D8D
:103860009C0121503109203B3740B0F027E02F93D5
:1038700020EB2F939F938F9387E493E09F938F93F5
:103880001F9281E08F93E1E0F0E0EC0FFD1FFF93CA
:10389000EF931F9283E000CED50116962D913C91B7
:1038A0001797F101E21BF30B9F01F7FD0CC0BC0160
:1038B0006E0F7F1F14964D915C9115974617570711
:1038C000D4F4280E391E3F922F928BE793E09F93FA
:1038D0008F931F921F9221E030E02C0F3D1F3F93EA
:1038E0002F931F9282E08F937F926F925F924F92FD
:1038F0000E94B718A1CD56E0C50ED11C54960D916B
:103900001C91200F311FF90150E040E081E090E070
:103910008C0F9D1FC80ED91ECF01801B910B8617DF
:103920009707F0F0D2015896ED91FC910484F5854B
:10393000E02DBE016F5F7F4FC3010995A1E0B0E0AC
:10394000AC0FBD1FA80FB91FF701E80FF91F24E046
:1039500001900D922A95E1F78C010C5F1F4FE1CD8C
:10396000CF01821B930BA3E096958795AA95E1F76B
:103970008C0D9D1D8C5F9E4FDC018C9190E0042E80
:1039800002C0959587950A94E2F7817081934F5F05
:103990005F4F47705527C0CFE8E0F1E0EC0FFD1F07
:1039A000EC0DFD1D208130E0322F2227E9E0F1E00F
:1039B000EC0FFD1FEC0DFD1D8081280F311DC9018D
:1039C00001978B37910578F01F928BE78F933F9388
:1039D0002F9385EA93E09F938F931F9281E08F93BB
:1039E000CE010196F2CED50152968D919C915397BE
:1039F000F101E81BF90BCF01F7FD31C0A9014E0F12
:103A00005F1F50966D917C916417750734F1CD5E00
:103A1000DD4FE881F981C351D2409C01220F331F51
:103A20002E193F092C193D09841795070CF07ACF00
:103A3000D5015A966D917C91DB01A20FB31FAE0F99
:103A4000BF1F668170E0762F66271781610F711D99
:103A50006D937C9301963296E7CF220E331E3F92F0
:103A60002F928EED93E09F938F931F921F92CE0122
:103A700001969F938F9335CFD2015896ED91FC918B
:103A80000484F585E02DBE016F5F7F4FC30109956A
:103A9000FE01E80FF91F24EB2283FE01E80FF91F56
:103AA0002FEF2383DC011396E1E0F0E0EC0FFD1F24
:103AB000AE0FBF1F28E0EDE0F4E001900D922A95D3
:103AC000E1F78C01055F1F4FE1E0F0E0EC0FFD1F17
:103AD000E80FF91F8AE0808324CD8DE690E0B6CB15
:103AE000D50152968D919C915397F101E81BF90BEA
:103AF000CE010196F7FD7FCE50962D913C915197C6
:103B0000E217F3070CF077CEEE0FFF1F5A962D91B8
:103B10003C91E20FF31FAAE0B1E0AC0FBD1FAC0D6A
:103B2000BD1D2C9130E0322F2227ABE0B1E0AC0F6D
:103B3000BD1FAC0DBD1D4C91240F311DA8E0B1E09F
:103B4000AC0FBD1FAC0DBD1D4C91642F70E0762FE6
:103B50006627A9E0B1E0AC0FBD1FAC0DBD1D4C91B7
:103B6000460F572F511D60817181622773274623AD
:103B70005723242735275ECEE8E0F1E0EC0FFD1F48
:103B8000EC0DFD1D808190E0982F8827E9E0F1E0A1
:103B9000EC0FFD1FEC0DFD1D2081FC01E20FF11D5E
:103BA000CF5EDD4FF983E883C151D240ECE0F1E014
:103BB000EC0FFD1FEC0DFD1D808190E0982F8827F4
:103BC000EDE0F1E0EC0FFD1FEC0DFD1D2081820FFB
:103BD000911D9C01215031098E010F5F1F4F293724
:103BE0003105C0F4CF5EDD4F28813981C151D2400B
:103BF000215031092D37310568F4EEE0F1E0EC0F8A
:103C0000FD1FEC0DFD1D40819C01220F331F42174B
:103C1000130639F11F922DE72F931F9229E72F9357
:103C2000CE5EDD4FF881C251D240FF93CF5EDD4FB3
:103C30002881C151D2402F939F938F9386E194E0C6
:103C40009F938F931F9281E08F931F930F931F92E7
:103C500083E08F937F926F925F924F920E94B7188A
:103C6000EBCBEAE0F1E0EC0FFD1FEC0DFD1D208138
:103C700030E0322F2227EBE0F1E0EC0FFD1FEC0DDE
:103C8000FD1D4081240F311DD50152964D915C914F
:103C900053977101E41AF50ACB5EDD4FF982E88291
:103CA000C551D240F901E41BF50BAF014F01F7FC00
:103CB000DFC0CF5EDD4F68817981C151D2406E0D8A
:103CC0007F1DC75EDD4F79836883C951D24050960E
:103CD0006D917C91C75EDD4FA881B981C951D240F9
:103CE0006A177B0764F0FC01E40FF51FC55EDD4F2A
:103CF000F983E883CB51D2406E177F07DCF457FD80
:103D000004C0280F391FF7FC08C0CF5EDD4F488183
:103D10005981C151D240240E351E3F932F933F92BB
:103D20002F9282E694E09F938F931F921F921F938E
:103D30000F93B0CBD2015896ED91FC910484F58598
:103D4000E02DB801C3010995F801E80FF91FCF5E16
:103D5000DD4F2881C151D240220F2083CD5EDD4F3F
:103D6000E881F981C351D240AE014B5F5E4F9401AF
:103D7000220F331F241B350B2C193D09C55EDD4F67
:103D800048815981CB51D240841695060CF443C02A
:103D9000F801E80FF91F9701220F331F201B310B89
:103DA000B901681B790BCB0141E050E0401B510B7E
:103DB0008A010E0F1F1FC75EDD4F68817981C951CF
:103DC000D240CB5EDD4FA881B981C551D240A61744
:103DD000B7070CF0A6CBBC016E0F7F1FD5015A961A
:103DE0002D913C91DB01A20FB31F11962C911197DD
:103DF00021832C912283CB5EDD4F28813981C551EF
:103E0000D2402F5F3F4FCB5EDD4F39832883C551B2
:103E1000D2403296CDCFD5015A964D915C91DA01C0
:103E2000A20FB31FAE0FBF1F428550E0542F44278F
:103E30006385460F511D4D935C93BFEF8B1A9B0A10
:103E400032969CCF1F929F9283EB94E09F938F9327
:103E50001F9281E08F939E012F5F3F4F3F932F93DF
:103E60001F9241CD0E94FF02C2010E94EC0296CB3C
:103E7000F7FF47CF52CFFC01248D358D232B11F056
:103E80000C94041908950F931F93CF93DF93CDB72C
:103E9000DEB728970FB6F894DEBF0FBECDBF8C01FA
:103EA000D80159964D915C915A974115510551F0A1
:103EB000ED91FC91048CF58DE02D70E060E0C8017F
:103EC0000995EECFF801808D0E945911892BB1F12F
:103ED00048E050E0BE016F5F7F4FD80158968C914B
:103EE0000E94501218161906F4F4D801509684E076
:103EF000FE01319601900D928A95E1F78D8190E057
:103F0000982F88272E81820F911DF801958B848B25
:103F10008F81282F30E0322F22278885820F932F20
:103F2000911D928F818F28960FB6F894DEBF0FBE39
:103F3000CDBFDF91CF911F910F91089590E080E068
:103F4000F2CF4F925F926F927F928F929F92AF9239
:103F5000BF92CF92DF92EF92FF920F931F93CF9376
:103F6000DF93CDB7DEB763970FB6F894DEBF0FBE11
:103F7000CDBF7C016B013A01FB0120E090E080E0C5
:103F80006AE03191332309F461C040ED430F4A30B8
:103F900008F04DC0689FA001699F500D1124CA010F
:103FA000C097830F911D37FD9A958F3F910549F377
:103FB00040F3F70142815381648175818091A506A8
:103FC0009091A606A091A706B091A8064817590798
:103FD0006A077B0709F40DC28701085F1F4F0E9423
:103FE000A9016F7077277C5FC8010E94370F81306D
:103FF00009F004C28BED91E09A838983F7018281F5
:104000009381A481B5818B839C83AD83BE8345E37B
:1040100050E0BE016F5F7F4FC8010E94C707892B28
:10402000A9F5D12CC12CC8010E94160C17C03E3234
:1040300009F0BFCF233009F4BCCFD301A20FB11DCB
:1040400012968C932F5F90E080E09BCF233009F095
:10405000B0CFF3018583CC24C394D12CC6016396E1
:104060000FB6F894DEBF0FBECDBFDF91CF911F9189
:104070000F91FF90EF90DF90CF90BF90AF909F9007
:104080008F907F906F905F904F9008950E94A9014C
:10409000F7017783668342E050E0B7016A5F7F4FA4
:1040A000C8010E94EB1081E090E09A83898342E08E
:1040B00050E0BE016F5F7F4FC8010E94EB1080E0AF
:1040C00091E09A83898342E050E0BE016F5F7F4FA9
:1040D000C8010E94EB101A82198242E050E0BE0132
:1040E0006F5F7F4FC8010E94EB1042E050E0BE01BD
:1040F0006F5F7F4FC8010E94EB1042E050E0BE01AD
:104100006F5F7F4FC8010E94EB105601F60180815E
:10411000882301F16501F60181912F01882311F0B7
:104120008E32B1F446018A189B081814190474F4ED
:104130008D8641E050E0BE01635F7F4FC8010E9461
:10414000EB10A401B501C8010E94EB105201DECFB3
:104150006201E1CF1D8641E050E0BE01635F7F4F09
:10416000C8010E94EB10C12CDD24D394DA82C982ED
:1041700042E050E0BE016F5F7F4FC8010E94EB102C
:10418000DA82C98242E050E0BE016F5F7F4FC80112
:104190000E94EB10C8010E94B00C892B09F441CF9A
:1041A000F3E0AF2EB12C230122E0420E511CD4C00B
:1041B000F7014281538164817581808D918DA28D3B
:1041C000B38D481759076A077B0709F008C1848D2A
:1041D000958DC59709F003C181A192A15DEFC52E10
:1041E000DD24DA940C970CF4ADC04CE050E0BE0135
:1041F0006F5F7F4FC8010E941E138B819C8198279F
:10420000892798279A8B898BF701468157812981C5
:104210003A814217530709F0E7C097FFE5C08F7056
:1042200092703BEFC32EDD24DA94892B09F08AC00B
:104230006F8078847624672476242AEFC22EDD24CA
:10424000DA946114710409F47DC0D12CC12C8D81E4
:104250009E81982789279827C816D906F8F441E047
:1042600050E0BE01635F7F4FC8010E941E134D8561
:10427000442331F050E070E060E0C8010E941E135A
:104280008D858111ECCF44E050E070E060E0C80122
:104290000E941E13FFEFCF1ADF0AD9CF912C812C79
:1042A00041E050E0BE016D5E7F4FC8010E941E13C9
:1042B0004B89842F807C09F06CC0442331F050E09E
:1042C00070E060E0C8010E941E138B898111E8CF65
:1042D00042E050E0BE01615F7F4FC8010E941E13A3
:1042E00042E050E0BE01635F7F4FC8010E941E1391
:1042F00044E050E070E060E0C8010E941E1342E01C
:1043000050E0BE016F5E7F4FC8010E941E138F8573
:10431000988949895A898115914009F043C0CD8413
:10432000DE84DC24CD24DC2481E0C816D104D1F560
:104330004115544009F04AC044E050E0B201C801C0
:104340000E941E1321E0A21AB10809F46CCEFFEFFF
:10435000CF16DF0609F067CE0E94A9013B014C0190
:10436000C8010E94431F181619060CF421CF0E94A1
:10437000A901661977098809990969387341810586
:10438000910548F562E370E080E090E00E947601DC
:10439000E7CF41E050E070E060E0C8010E941E13EA
:1043A0001B8A93CF54274527542770E060E0C8014B
:1043B0000E941E13FFEF8F1A9F0A6814790409F0F8
:1043C0006FCF96EFC92EDD24DA94BCCFE7EFCE2E67
:1043D000DD24DA94B7CFCC24CA94DC2CB3CF6EEFB3
:1043E000C62EDD24DA94AECF4CEFC42EDD24DA9451
:1043F000A9CF8EEFC82EDD24DA9430CED12CC12C7B
:104400002DCECF92DF92EF92FF920F931F93CF9317
:10441000DF93CDB7DEB7AF970FB6F894DEBF0FBE10
:10442000CDBF7C016A010BED11E01A8309831C8664
:104430001B8688EE93E0A0E0B0E08D879E87AF8773
:10444000B88B80E591E09A878987188F0F8B198E3A
:104450001A8E1B8E1C8E84E089A31BA70AA71CA69C
:104460001DA61EA61FA68091CF069091D006A091F2
:10447000D106B091D2068EA39FA3A8A7B9A78B831C
:104480009C83AD83BE8318861F82AE01465D5F4F5D
:10449000CE0101960E94A11F81309105B1F4D70190
:1044A000ED91FC910488F589E02D1DA30CA38CA54A
:1044B0009DA5AEA5BFA58EA39FA3A8A7B9A7A6013A
:1044C000BE016C5D7F4FC7010995AF960FB6F8949A
:1044D000DEBF0FBECDBFDF91CF911F910F91FF9037
:1044E000EF90DF90CF900895CF92DF92EF92FF92FE
:1044F0000F931F93CF93DF93CDB7DEB7AF970FB670
:10450000F894DEBF0FBECDBF8C016B017A018BED3D
:1045100091E09A8389831B821C821D821E821C86E5
:104520001B8648EE53E060E070E04D875E876F8742
:10453000788B20E531E03A872987988F8F8B198E09
:104540001A8E1B8E1C8E24E029A39BA78AA71CA66B
:104550001DA61EA61FA6D8011C968C91843060F45F
:104560000E94270C882321F0F80184850E94FE0B0D
:1045700084E0D8011C968C938091CF069091D00650
:10458000A091D106B091D2068EA39FA3A8A7B9A7E8
:104590008B839C83AD83BE8318861F82AE01465DEC
:1045A0005F4FB601CE0101960E94A11F0097C1F096
:1045B000D801ED91FC910684F785E02D8BED91E01B
:1045C0009DA38CA38CA59DA5AEA5BFA58EA39FA3DF
:1045D000A8A7B9A7A701BE016C5D7F4FC8010995C7
:1045E000AF960FB6F894DEBF0FBECDBFDF91CF916F
:1045F0001F910F91FF90EF90DF90CF900895EF9271
:10460000FF920F931F93CF93DF9300D000D0CDB7CD
:10461000DEB78C017B01FB0184858430A8F08BED33
:1046200091E0F801918380831282138214821582B3
:10463000C8010F900F900F900F90DF91CF911F91B5
:104640000F91FF90EF90089580E591E00E948D001A
:1046500024E030E0AE014F5F5F4F6CE070E0F701A7
:1046600084850E94E10C8BED91E0F80191838083B9
:1046700089819A81AB81BC8182839383A483B58332
:10468000D7CF1F920F920FB60F9211242F933F9303
:104690008F939F93AF93BF938091CC059091CD055D
:1046A000A091CE05B091CF053091CB0523E0230F2B
:1046B0002D3758F50196A11DB11D2093CB05809390
:1046C000CC059093CD05A093CE05B093CF058091F6
:1046D000D0059091D105A091D205B091D305019656
:1046E000A11DB11D8093D0059093D105A093D20553
:1046F000B093D305BF91AF919F918F913F912F912F
:104700000F900FBE0F901F90189526E8230F02966A
:10471000A11DB11DD2CF1F920F920FB60F9211247F
:104720002F933F934F935F936F937F938F939F93B9
:10473000AF93BF93EF93FF93E0910201F0910301D8
:104740000995FF91EF91BF91AF919F918F917F91CB
:104750006F915F914F913F912F910F900FBE0F90EE
:104760001F9018951F920F920FB60F9211242F933E
:104770003F934F935F936F937F938F939F93AF93E9
:10478000BF93EF93FF93E0910001F0910101099530
:10479000FF91EF91BF91AF919F918F917F916F9119
:1047A0005F914F913F912F910F900FBE0F901F90EF
:1047B00018951F920F920FB60F9211242F933F93CB
:1047C0004F935F936F937F938F939F93AF93BF9319
:1047D000EF93FF938AEF95E00E943402FF91EF91EF
:1047E000BF91AF919F918F917F916F915F914F9109
:1047F0003F912F910F900FBE0F901F9018951F9211
:104800000F920FB60F9211242F938F939F93EF93D4
:10481000FF93E0910A06F0910B068081E09110066B
:10482000F091110682FD1BC09081809113068F5F6D
:104830008F7320911406821741F0E0911306F0E087
:10484000E650FA4F958F80931306FF91EF919F9159
:104850008F912F910F900FBE0F901F901895808110
:10486000F4CFCF93DF93EAEFF5E01382128288EE64
:1048700093E0A0E0B0E084839583A683B78385EAC4
:1048800091E09183808385EC90E09587848784EC28
:1048900090E09787868780EC90E0918B808B81EC0D
:1048A00090E0938B828B82EC90E0958B848B86ECEE
:1048B00090E0978B868B118E128E138E148EE7E903
:1048C000F6E08BED91E09183808312821382148253
:1048D0001582EDE9F6E091838083128213821482BF
:1048E0001582E3EAF6E091838083128213821482B8
:1048F0001582E9EAF6E091838083128213821482A2
:104900001582EFEAF6E0918380831282138214828B
:104910001582E5EBF6E09183808312821382148284
:104920001582EBEBF6E0918380831282138214826E
:104930001582E1ECF6E09183808312821382148267
:104940001582E7ECF6E09183808312821382148251
:104950001582E3EDF6E09183808312821382148244
:104960001582EDECF6E0918380831282138214822B
:104970001582EDE1F7E09183808312821382148225
:104980001582E9EDF6E016821782108611861286EE
:1049900013861486158628EC30E0378726872BE0AF
:1049A00030E0318B208B29E030E0338B228B2FEFEE
:1049B0003FEF358B248B41E050E0578B468B518F76
:1049C000408F128E138E148E158E178E168E48EE13
:1049D00053E051A340A353A342A314A615A616A6C1
:1049E00017A610A611A612A613A615AE14AE10AAED
:1049F00011AA12AA13AA14AA15AA16AA17AA10AEC7
:104A000011AE12AE13AE128213821482158214A25A
:104A100015A216A217A247EB51E05183408337AF8E
:104A200026AF30931A072093190730931C07209361
:104A30001B07EDE4F7E091838083128213821482D6
:104A40001582E7E4F7E09183808380EC828388EA33
:104A5000838381E0848384E18583E1E4F7E013824A
:104A6000128281EE91E09183808386EF91E09583BD
:104A70008483E3E2F7E013821282A7E2B7E088E1E1
:104A8000ED0119928A95E9F781ED91E09183808398
:104A9000158E148EDF91CF910895CF93DF93CDB70C
:104AA000DEB72F970FB6F894DEBF0FBECDBF789458
:104AB00084B5826084BD84B5816084BD85B5826023
:104AC00085BD85B5816085BD80916E0081608093D4
:104AD0006E0010928100809181008260809381003D
:104AE000809181008160809381008091800081604D
:104AF000809380008091B10084608093B1008091A8
:104B0000B00081608093B00080917A0084608093CF
:104B10007A0080917A00826080937A0080917A0096
:104B2000816080937A0080917A00806880937A0017
:104B30001092C100E0910A06F0910B0682E080839A
:104B4000E0910606F09107061082E0910806F091C8
:104B500009068FEC808310921206E0910E06F09108
:104B60000F0686E08083E0910C06F0910D068081AF
:104B700080618083E0910C06F0910D068081886051
:104B80008083E0910C06F0910D068081806880831F
:104B9000E0910C06F0910D0680818F7D808368ED99
:104BA00074E08AEF95E00E9461188BED91E09A83A2
:104BB00089838091490790914A07A0914B07B09152
:104BC0004C078B839C83AD83BE838E010F5F1F4F89
:104BD000C8010E94320BE091F805E353E53030F450
:104BE000F0E0EA58FE4F808181110DC064EF74E05F
:104BF0008AEF95E00E94611861E070E080E090E04B
:104C00000E947601F9CF8091F905882309F4CAC181
:104C10008091F805843309F4CAC1873309F4D8C1F7
:104C200081E497E00E945C0F8BED91E09A83898389
:104C30001B821C821D821E82C8010E940B177C01F0
:104C40008091370790913807009711F00E94732BDD
:104C50008091390790913A07009711F00E94732BC9
:104C600080913B0790913C07009711F00E94732BB5
:104C700080913D0790913E07009711F00E94732BA1
:104C8000E7E2F7E088E1DF011D928A95E9F780917C
:104C9000250790912607009741F00E94CE0280914F
:104CA0002507909126070E94C302F0922607E09202
:104CB0002507E114F10409F496C1D7015896ED9146
:104CC000FC910084F185E02D6FEF70E0C70109953C
:104CD00069E070E080913707909138070E94FC2BC3
:104CE0009093380780933707009709F083C110929B
:104CF0002A0710922907109228071092270762E1CD
:104D000070E080913D0790913E070E94FC2B9093AC
:104D10003E0780933D07009709F07CC1109236074B
:104D200010923507109234071092330762E082E048
:104D30000E94150162E083E00E94150186E998E176
:104D40009093010180930001809169008C7F8160C4
:104D500080936900E89A85E798E190930301809336
:104D6000020180916900837F846080936900E99AE1
:104D700061E08CE00E94150161E08091E9060E94EB
:104D8000150161E08091E9060E94E70061E08091F1
:104D9000EB060E94150160E08091EB060E94E7009F
:104DA0008091ED069091EE068F3F980739F061E013
:104DB0000E94150189ED96E00E94460880E090E08F
:104DC000A8E4B2E48093F3069093F406A093F5066A
:104DD000B093F60660E170E089ED96E00E94AC08C1
:104DE00089ED96E00E945708809117079091180767
:104DF0008F3F9807D9F02091190730911A072F3F5C
:104E00003F4FA1F020911B0730911C072F3F3F4FD0
:104E100069F061E00E94150161E0809119070E942C
:104E2000150161E080911B070E941501A091E70622
:104E3000B091E80628E631E00E94D2289B01AC013F
:104E4000A091F106B091F2060E94832828E631E095
:104E500040E050E00E945928CA01B9010E94DE13C7
:104E600094E0C92ED12C20E0622E20E0722E442442
:104E7000439434EEA32E3BE2B32E46E1842E912CD4
:104E800061E477E0C8010E9477118D85843008F0D5
:104E900000C16EE775E08AEF95E00E946118E0912D
:104EA0002507F0912607309709F0C4C09092540767
:104EB00080925307C8010E94550C882309F4E3C06F
:104EC00083E297E00E943B1F8091CA0560E0811158
:104ED00061E082E090E00E941D085090040160E0D3
:104EE000511061E083E090E00E941D088091290745
:104EF00090912A078530910554F42091270730912D
:104F00002807280F391F253031050CF09DC0B092BD
:104F10005407A0925307EE24EA94FE2C452D50E04E
:104F200070E060E02AE08AEF95E00E94A8176DEE3D
:104F300071E08AEF95E00E9499174091CA0550E010
:104F400070E060E02AE08AEF95E00E94A8176DEE1D
:104F500071E08AEF95E00E949917B1E0EB16F10439
:104F600009F07EC080910401882379F069E875E03A
:104F70008AEF95E00E946118109204014092CA05E0
:104F800060E070E0CB010E94DE1368EA75E08AEF12
:104F900095E00E94611868EC70E080E090E00E946B
:104FA000760188CF0E94150A811132CE39CE80E574
:104FB00091E00E948D0085E390E00E94EA0985FD62
:104FC0002FCE6AE375E08AEF95E00E94611828CE43
:104FD00080E591E00E948D008EE290E00E94EA0957
:104FE00080FD1ECEEECF6BE575E08AEF95E00E9466
:104FF0006118FFCF29E0FC0111922A95E9F7109280
:105000002A071092290789E090E09093280780935F
:10501000270775CE22E1DC011D922A95E9F710924F
:1050200036071092350789E090E09093340780931B
:1050300033077CCE028CF38DE02D1387028710930B
:10504000400700933F0736CFD601A81BB90BE0916C
:105050003707F0913807EA0FFB1FE080F12C5ECF95
:10506000EF2809F092CF8091CA05882309F48DCFEB
:1050700068E975E08AEF95E00E94611840920401AA
:105080001092CA057DCF60EB75E08AEF95E00E9433
:1050900061186114710409F4F3CE0E942002882380
:1050A00009F4EECE0E940000EBCE83E297E00C9470
:1050B0006317052E97FB1EF400940E94702857FD7D
:1050C00007D00E948B2807FC03D04EF40C94702864
:1050D00050954095309521953F4F4F4F5F4F089524
:1050E00090958095709561957F4F8F4F9F4F089554
:1050F0000E94AD28A59F900DB49F900DA49F800D98
:10510000911D11240895B7FF0C9478280E947828E7
:10511000821B930B0895A1E21A2EAA1BBB1BFD0153
:105120000DC0AA1FBB1FEE1FFF1FA217B307E40786
:10513000F50720F0A21BB30BE40BF50B661F771FDE
:10514000881F991F1A9469F76095709580959095BE
:105150009B01AC01BD01CF010895A29FB001B39F97
:10516000C001A39F700D811D1124911DB29F700D70
:10517000811D1124911D0895DB018F939F930E943F
:105180007828BF91AF91A29F800D911DA39F900D94
:10519000B29F900D11240895EE0FFF1F0590F4911A
:1051A000E02D09940E94AD28B7FF0895821B930B50
:1051B00008950E94ED280C94D5290E94CE2958F01C
:1051C0000E94C72940F029F45F3F29F00C94BE29C2
:1051D00051110C94092A0C94C4290E94E62968F301
:1051E0009923B1F3552391F3951B550BBB27AA27A0
:1051F00062177307840738F09F5F5F4F220F331FDA
:10520000441FAA1FA9F335D00E2E3AF0E0E832D0A1
:1052100091505040E695001CCAF72BD0FE2F29D0A4
:10522000660F771F881FBB1F261737074807AB0776
:10523000B0E809F0BB0B802DBF01FF2793585F4FEB
:105240003AF09E3F510578F00C94BE290C94092A3F
:105250005F3FE4F3983ED4F3869577956795B795CD
:10526000F7959F5FC9F7880F911D9695879597F9D8
:105270000895E1E0660F771F881FBB1F6217730751
:105280008407BA0720F0621B730B840BBA0BEE1F66
:1052900088F7E09508950E9452296894B1110C9402
:1052A000092A08950E94EE2988F09F5798F0B92F97
:1052B0009927B751B0F0E1F0660F771F881F991F4B
:1052C0001AF0BA95C9F714C0B13091F00E94082ABB
:1052D000B1E008950C94082A672F782F8827B85FCB
:1052E00039F0B93FCCF3869577956795B395D9F7A3
:1052F0003EF490958095709561957F4F8F4F9F4FAD
:105300000895E89409C097FB3EF4909580957095B8
:1053100061957F4F8F4F9F4F9923A9F0F92F96E901
:10532000BB279395F695879577956795B795F11176
:10533000F8CFFAF4BB0F11F460FF1BC06F5F7F4F13
:105340008F4F9F4F16C0882311F096E911C0772325
:1053500021F09EE8872F762F05C0662371F096E82E
:10536000862F70E060E02AF09A95660F771F881FFD
:10537000DAF7880F9695879597F9089597F99F67BB
:1053800080E870E060E008959FEF80EC08950024CD
:105390000A941616170618060906089500240A949A
:1053A00012161306140605060895092E0394000C20
:1053B00011F4882352F0BB0F40F4BF2B11F460FFAF
:1053C00004C06F5F7F4F8F4F9F4F089557FD9058D8
:1053D000440F551F59F05F3F71F04795880F97FBB9
:1053E000991F61F09F3F79F0879508951216130673
:1053F0001406551FF2CF4695F1DF08C016161706A2
:105400001806991FF1CF86957105610508940895D6
:10541000E894BB2766277727CB0197F908950E9468
:10542000222A0C94D5290E94C72938F00E94CE293F
:1054300020F0952311F00C94BE290C94C42911245A
:105440000C94092A0E94E62970F3959FC1F3950FE9
:1054500050E0551F629FF001729FBB27F00DB11DF8
:10546000639FAA27F00DB11DAA1F649F6627B00D88
:10547000A11D661F829F2227B00DA11D621F739F71
:10548000B00DA11D621F839FA00D611D221F749F7F
:105490003327A00D611D231F849F600D211D822FC6
:1054A000762F6A2F11249F5750409AF0F1F08823ED
:1054B0004AF0EE0FFF1FBB1F661F771F881F91501A
:1054C0005040A9F79E3F510580F00C94BE290C94E2
:1054D000092A5F3FE4F3983ED4F386957795679564
:1054E000B795F795E7959F5FC1F7FE2B880F911D44
:1054F0009695879597F9089519F416F40C94C42994
:105500000C94C22A0E94EE29B8F39923C9F3B6F38A
:105510009F57550B87FF0E94D02A0024A0E640EA3F
:10552000900180585695979528F4805C660F771FF8
:10553000881F20F026173707480730F4621B730BCB
:10554000840B202931294A2BA695179407942025EE
:1055500031254A2758F7660F771F881F20F0261736
:105560003707480730F4620B730B840B200D311D95
:10557000411DA09581F7B901842F9158880F969508
:10558000879508959F3F31F0915020F48795779546
:105590006795B795880F911D9695879597F908950A
:1055A00091505040660F771F881FD2F708950F93D0
:1055B0001F93CF93DF938230910510F482E090E047
:1055C000E0915D07F0915E0730E020E0B0E0A0E000
:1055D000309799F42115310509F44AC0281B390B7D
:1055E00024303105D8F58A819B816115710589F1D7
:1055F000FB0193838283FE0111C0408151810281AE
:10560000138148175907E0F04817590799F4109784
:1056100061F012960C93129713961C933296CF0159
:10562000DF91CF911F910F91089500935D07109323
:105630005E07F4CF2115310551F04217530738F0BA
:10564000A901DB019A01BD01DF01F801C1CFEF0122
:10565000F9CF90935E0780935D07CDCFFE01E20FF7
:10566000F31F819391932250310939832883D7CF37
:1056700020915B0730915C07232B41F420910F01AF
:105680003091100130935C0720935B0720910D014E
:1056900030910E012115310541F42DB73EB74091EF
:1056A000110150911201241B350BE0915B07F09121
:1056B0005C07E217F307A0F42E1B3F0B28173907EE
:1056C00078F0AC014E5F5F4F2417350748F04E0F5E
:1056D0005F1F50935C0740935B07819391939FCF2B
:1056E000F0E0E0E09CCFCF93DF930097E9F0FC017E
:1056F000329713821282A0915D07B0915E07ED018F
:1057000030E020E01097A1F420813181820F931FB7
:1057100020915B0730915C072817390709F061C0B9
:10572000F0935C07E0935B07DF91CF910895EA0166
:10573000CE17DF07E8F54A815B819E0141155105CF
:10574000B1F7E901FB83EA8349915991C40FD51F51
:10575000EC17FD0761F4808191810296840F951FFB
:10576000E90199838883828193819B838A83F0E016
:10577000E0E012968D919C9113970097B9F52D91C9
:105780003C911197CD010296820F931F20915B07E8
:1057900030915C072817390739F6309751F5109288
:1057A0005E0710925D07B0935C07A0935B07BCCFC8
:1057B000D383C28340815181840F951FC817D907B5
:1057C00061F44E5F5F4F88819981480F591F518363
:1057D00040838A819B81938382832115310509F05F
:1057E000B0CFF0935E07E0935D079ECFFD01DC0133
:1057F000C0CF13821282D7CFB0E0A0E0E2E0FCE29B
:105800000C944E2F8C01009751F4CB010E94D72AA3
:105810008C01C801CDB7DEB7E0E10C946A2FFC0122
:10582000E60FF71F9C0122503109E217F30708F435
:105830009DC0D901CD91DC911197C617D70798F07B
:10584000C530D10530F3CE0104978617970708F3CA
:10585000C61BD70B2297C193D1936D937C93CF0135
:105860000E94732BD6CF5B01AC1ABD0A4C018C0E83
:105870009D1EA0915D07B0915E07512C412CF12C2B
:10588000E12C109731F580915B0790915C078815AA
:10589000990509F05CC04616570608F058C080917B
:1058A0000D0190910E01009741F48DB79EB7409184
:1058B000110150911201841B950BE817F90708F0AC
:1058C00055C0F0935C07E0935B07F9017183608337
:1058D000A0CF8D919C91119712966C901297139670
:1058E0007C901397A815B90559F56C0142E0C40ED8
:1058F000D11CCA14DB0420F1AC014A195B09DA019E
:105900001296159780F06282738251834083D90189
:105910006D937C93E114F10471F0D7011396FC931D
:10592000EE93129776CF22968C0F9D1FF9019183EB
:105930008083F301EFCFF0935E07E0935D0769CFBB
:105940004816590608F42C017D01D3019ACFCB01EA
:105950000E94D72A7C01009749F0AE01B8010E944D
:10596000BE2CC8010E94732B870153CF10E000E0CA
:1059700050CF81E090E0F8940C94832FFB01DC0180
:1059800002C001900D9241505040D8F70895DC01BB
:1059900001C06D9341505040E0F70895ABE0B0E096
:1059A000E4EDFCE20C944C2F7C013B018A01FC01EC
:1059B00017821682838181FFC8C1CE0101965C01E6
:1059C000F7019381F30193FD859193FF81913F014D
:1059D000882309F453C1853239F493FD859193FFEF
:1059E00081913F01853229F4B70190E00E94BE2EDB
:1059F000E7CF912C212C312CFFE1F31538F08B32BD
:105A000011F190F4803209F1833229F137FC3CC066
:105A100020ED280F2A3050F536FE20C08AE0989EEF
:105A2000200D1124922E06C08D3291F0803371F733
:105A3000689430F8F30193FD859193FF81913F01C4
:105A40008111DACF21C0689431F8689432F8F2CF2E
:105A5000689433F8EFCF689434F8ECCFEAE02E9EE8
:105A6000200D1124222E689435F8E4CF8E3229F4CB
:105A700036FC04C1689436F8DDCF8C3619F468948E
:105A800037F8D8CF8836B1F2982F9F7D9554933050
:105A9000E0F08336A1F18337C1F1833509F063C0AB
:105AA0002801F2E04F0E511CF801C080D180692D11
:105AB00070E036FC02C06FEF7FEFC6010E94A82E97
:105AC0004C01689437F882010AC00C5F1F4FFFE356
:105AD000F98388248394912C6501E89437F833FE88
